{
  "_format": "hh-sol-artifact-1",
  "contractName": "InferenceManager",
  "sourceName": "contracts/InferenceManager.sol",
  "abi": [
    {
      "inputs": [],
      "stateMutability": "nonpayable",
      "type": "constructor"
    },
    {
      "anonymous": false,
      "inputs": [
        {
          "indexed": true,
          "internalType": "address",
          "name": "previousOwner",
          "type": "address"
        },
        {
          "indexed": true,
          "internalType": "address",
          "name": "newOwner",
          "type": "address"
        }
      ],
      "name": "OwnershipTransferred",
      "type": "event"
    },
    {
      "anonymous": false,
      "inputs": [
        {
          "indexed": false,
          "internalType": "uint256",
          "name": "requestId",
          "type": "uint256"
        },
        {
          "indexed": false,
          "internalType": "uint256",
          "name": "inferenceId",
          "type": "uint256"
        },
        {
          "indexed": true,
          "internalType": "address",
          "name": "responder",
          "type": "address"
        },
        {
          "indexed": true,
          "internalType": "address",
          "name": "rater",
          "type": "address"
        },
        {
          "indexed": false,
          "internalType": "uint256",
          "name": "rating",
          "type": "uint256"
        }
      ],
      "name": "RatingRecieved",
      "type": "event"
    },
    {
      "anonymous": false,
      "inputs": [
        {
          "indexed": true,
          "internalType": "address",
          "name": "requestor",
          "type": "address"
        },
        {
          "indexed": false,
          "internalType": "uint256",
          "name": "requestId",
          "type": "uint256"
        },
        {
          "indexed": false,
          "internalType": "string",
          "name": "prompt",
          "type": "string"
        },
        {
          "indexed": false,
          "internalType": "uint256",
          "name": "offer",
          "type": "uint256"
        },
        {
          "indexed": true,
          "internalType": "address",
          "name": "responder",
          "type": "address"
        }
      ],
      "name": "RequestRecieved",
      "type": "event"
    },
    {
      "anonymous": false,
      "inputs": [
        {
          "indexed": true,
          "internalType": "address",
          "name": "responder",
          "type": "address"
        },
        {
          "indexed": false,
          "internalType": "uint256",
          "name": "cost",
          "type": "uint256"
        }
      ],
      "name": "ResponderAdded",
      "type": "event"
    },
    {
      "anonymous": false,
      "inputs": [
        {
          "indexed": true,
          "internalType": "address",
          "name": "responder",
          "type": "address"
        }
      ],
      "name": "ResponderRemoved",
      "type": "event"
    },
    {
      "anonymous": false,
      "inputs": [
        {
          "indexed": false,
          "internalType": "uint256",
          "name": "requestId",
          "type": "uint256"
        },
        {
          "indexed": true,
          "internalType": "address",
          "name": "responder",
          "type": "address"
        },
        {
          "indexed": false,
          "internalType": "string",
          "name": "url",
          "type": "string"
        }
      ],
      "name": "ResponseRecieved",
      "type": "event"
    },
    {
      "inputs": [],
      "name": "MAX_INFERENCES",
      "outputs": [
        {
          "internalType": "uint256",
          "name": "",
          "type": "uint256"
        }
      ],
      "stateMutability": "view",
      "type": "function"
    },
    {
      "inputs": [],
      "name": "RATING_REWARD",
      "outputs": [
        {
          "internalType": "uint256",
          "name": "",
          "type": "uint256"
        }
      ],
      "stateMutability": "view",
      "type": "function"
    },
    {
      "inputs": [],
      "name": "isTokenSet",
      "outputs": [
        {
          "internalType": "bool",
          "name": "",
          "type": "bool"
        }
      ],
      "stateMutability": "view",
      "type": "function"
    },
    {
      "inputs": [],
      "name": "owner",
      "outputs": [
        {
          "internalType": "address",
          "name": "",
          "type": "address"
        }
      ],
      "stateMutability": "view",
      "type": "function"
    },
    {
      "inputs": [
        {
          "internalType": "uint256",
          "name": "id",
          "type": "uint256"
        },
        {
          "internalType": "uint256",
          "name": "inferenceId",
          "type": "uint256"
        },
        {
          "internalType": "uint256",
          "name": "rating",
          "type": "uint256"
        }
      ],
      "name": "rateInference",
      "outputs": [],
      "stateMutability": "nonpayable",
      "type": "function"
    },
    {
      "inputs": [
        {
          "internalType": "uint256",
          "name": "id",
          "type": "uint256"
        },
        {
          "internalType": "string",
          "name": "url",
          "type": "string"
        }
      ],
      "name": "recieveInference",
      "outputs": [],
      "stateMutability": "nonpayable",
      "type": "function"
    },
    {
      "inputs": [
        {
          "internalType": "uint256",
          "name": "cost",
          "type": "uint256"
        }
      ],
      "name": "registerResponder",
      "outputs": [],
      "stateMutability": "nonpayable",
      "type": "function"
    },
    {
      "inputs": [
        {
          "internalType": "address",
          "name": "responder",
          "type": "address"
        }
      ],
      "name": "removeResponder",
      "outputs": [],
      "stateMutability": "nonpayable",
      "type": "function"
    },
    {
      "inputs": [],
      "name": "renounceOwnership",
      "outputs": [],
      "stateMutability": "nonpayable",
      "type": "function"
    },
    {
      "inputs": [],
      "name": "requestId",
      "outputs": [
        {
          "internalType": "uint256",
          "name": "",
          "type": "uint256"
        }
      ],
      "stateMutability": "view",
      "type": "function"
    },
    {
      "inputs": [
        {
          "internalType": "string",
          "name": "prompt",
          "type": "string"
        },
        {
          "internalType": "address",
          "name": "responder",
          "type": "address"
        },
        {
          "internalType": "uint256",
          "name": "offer",
          "type": "uint256"
        }
      ],
      "name": "requestInference",
      "outputs": [],
      "stateMutability": "nonpayable",
      "type": "function"
    },
    {
      "inputs": [
        {
          "internalType": "uint256",
          "name": "",
          "type": "uint256"
        }
      ],
      "name": "requests",
      "outputs": [
        {
          "internalType": "uint256",
          "name": "start",
          "type": "uint256"
        },
        {
          "internalType": "uint8",
          "name": "countInferences",
          "type": "uint8"
        },
        {
          "internalType": "uint256",
          "name": "offer",
          "type": "uint256"
        },
        {
          "internalType": "address",
          "name": "responder",
          "type": "address"
        },
        {
          "internalType": "bool",
          "name": "paid",
          "type": "bool"
        }
      ],
      "stateMutability": "view",
      "type": "function"
    },
    {
      "inputs": [
        {
          "internalType": "address",
          "name": "",
          "type": "address"
        }
      ],
      "name": "responders",
      "outputs": [
        {
          "internalType": "bool",
          "name": "active",
          "type": "bool"
        },
        {
          "internalType": "uint256",
          "name": "countInferences",
          "type": "uint256"
        },
        {
          "internalType": "uint256",
          "name": "averageRating",
          "type": "uint256"
        },
        {
          "internalType": "uint256",
          "name": "countRating",
          "type": "uint256"
        },
        {
          "internalType": "uint256",
          "name": "cost",
          "type": "uint256"
        }
      ],
      "stateMutability": "view",
      "type": "function"
    },
    {
      "inputs": [
        {
          "internalType": "uint256",
          "name": "",
          "type": "uint256"
        },
        {
          "internalType": "uint256",
          "name": "",
          "type": "uint256"
        }
      ],
      "name": "responses",
      "outputs": [
        {
          "internalType": "string",
          "name": "url",
          "type": "string"
        },
        {
          "internalType": "address",
          "name": "responder",
          "type": "address"
        }
      ],
      "stateMutability": "view",
      "type": "function"
    },
    {
      "inputs": [
        {
          "internalType": "address",
          "name": "_token",
          "type": "address"
        }
      ],
      "name": "setToken",
      "outputs": [],
      "stateMutability": "nonpayable",
      "type": "function"
    },
    {
      "inputs": [],
      "name": "token",
      "outputs": [
        {
          "internalType": "address",
          "name": "",
          "type": "address"
        }
      ],
      "stateMutability": "view",
      "type": "function"
    },
    {
      "inputs": [
        {
          "internalType": "address",
          "name": "newOwner",
          "type": "address"
        }
      ],
      "name": "transferOwnership",
      "outputs": [],
      "stateMutability": "nonpayable",
      "type": "function"
    }
  ],
  "bytecode": "0x608060405260006001553480156200001657600080fd5b50620000376200002b6200003d60201b60201c565b6200004560201b60201c565b62000109565b600033905090565b60008060009054906101000a900473ffffffffffffffffffffffffffffffffffffffff169050816000806101000a81548173ffffffffffffffffffffffffffffffffffffffff021916908373ffffffffffffffffffffffffffffffffffffffff1602179055508173ffffffffffffffffffffffffffffffffffffffff168173ffffffffffffffffffffffffffffffffffffffff167f8be0079c531659141344cd1fd0a4f28419497f9722a3daafe3b4186f6b6457e060405160405180910390a35050565b6126bc80620001196000396000f3fe608060405234801561001057600080fd5b50600436106101095760003560e01c8063715018a6116100a25780639ee7138c116100715780639ee7138c14610299578063aca7d7b6146102b7578063b9108df5146102d3578063f2fde38b146102ef578063fc0c546a1461030b57610109565b8063715018a61461020957806381d12c58146102135780638da5cb5b1461024757806391af9ba51461026557610109565b8063144fa6d7116100de578063144fa6d714610197578063199428ae146101b35780633af75565146101d15780634134b71c146101ed57610109565b806257efc21461010e5780626d6cae1461013f57806303fe87341461015d57806309ffb32c1461017b575b600080fd5b6101286004803603810190610123919061167c565b610329565b60405161013692919061178d565b60405180910390f35b610147610412565b60405161015491906117cc565b60405180910390f35b610165610418565b60405161017291906117cc565b60405180910390f35b61019560048036038101906101909190611878565b61041d565b005b6101b160048036038101906101ac91906118ec565b610643565b005b6101bb610700565b6040516101c891906117cc565b60405180910390f35b6101eb60048036038101906101e691906118ec565b610705565b005b61020760048036038101906102029190611919565b6107ae565b005b6102116108b6565b005b61022d60048036038101906102289190611919565b6108ca565b60405161023e95949392919061197d565b60405180910390f35b61024f61093a565b60405161025c91906119d0565b60405180910390f35b61027f600480360381019061027a91906118ec565b610963565b6040516102909594939291906119eb565b60405180910390f35b6102a16109a6565b6040516102ae9190611a3e565b60405180910390f35b6102d160048036038101906102cc9190611b89565b6109b9565b005b6102ed60048036038101906102e89190611be5565b610ef3565b005b610309600480360381019061030491906118ec565b61143f565b005b6103136114c2565b60405161032091906119d0565b60405180910390f35b6003602052816000526040600020818154811061034557600080fd5b90600052602060002090600202016000915091505080600001805461036990611c67565b80601f016020809104026020016040519081016040528092919081815260200182805461039590611c67565b80156103e25780601f106103b7576101008083540402835291602001916103e2565b820191906000526020600020905b8154815290600101906020018083116103c557829003601f168201915b5050505050908060010160009054906101000a900473ffffffffffffffffffffffffffffffffffffffff16905082565b60015481565b600581565b6001600081548092919061043090611cc7565b91905055506040518060a00160405280428152602001600060ff1681526020018281526020018373ffffffffffffffffffffffffffffffffffffffff168152602001600015158152506002600060015481526020019081526020016000206000820151816000015560208201518160010160006101000a81548160ff021916908360ff1602179055506040820151816002015560608201518160030160006101000a81548173ffffffffffffffffffffffffffffffffffffffff021916908373ffffffffffffffffffffffffffffffffffffffff16021790555060808201518160030160146101000a81548160ff021916908315150217905550905050600560009054906101000a900473ffffffffffffffffffffffffffffffffffffffff1673ffffffffffffffffffffffffffffffffffffffff166323b872dd3330846040518463ffffffff1660e01b815260040161058c93929190611d0f565b6020604051808303816000875af11580156105ab573d6000803e3d6000fd5b505050506040513d601f19601f820116820180604052508101906105cf9190611d72565b508173ffffffffffffffffffffffffffffffffffffffff163373ffffffffffffffffffffffffffffffffffffffff167ff8f23455a4b0b1b1dfec700a18244d12c272650a9091f6a7cffe246ea1ccb9966001548787866040516106359493929190611dcc565b60405180910390a350505050565b61064b6114e8565b60001515600560149054906101000a900460ff161515146106a1576040517f08c379a000000000000000000000000000000000000000000000000000000000815260040161069890611e58565b60405180910390fd5b80600560006101000a81548173ffffffffffffffffffffffffffffffffffffffff021916908373ffffffffffffffffffffffffffffffffffffffff1602179055506001600560146101000a81548160ff02191690831515021790555050565b600a81565b61070d6114e8565b6000600460008373ffffffffffffffffffffffffffffffffffffffff1673ffffffffffffffffffffffffffffffffffffffff16815260200190815260200160002060000160006101000a81548160ff0219169083151502179055508073ffffffffffffffffffffffffffffffffffffffff167f48dbfd25a38aa235ac710f3a9bbc9fcd127134208c407baea032dd0c0e2db24a60405160405180910390a250565b6040518060a0016040528060011515815260200160008152602001600081526020016000815260200182815250600460003373ffffffffffffffffffffffffffffffffffffffff1673ffffffffffffffffffffffffffffffffffffffff16815260200190815260200160002060008201518160000160006101000a81548160ff021916908315150217905550602082015181600101556040820151816002015560608201518160030155608082015181600401559050503373ffffffffffffffffffffffffffffffffffffffff167f6123183fbc5127d1285b5464ff3dba57edb6b7fa512bd16d713882f9521481c3826040516108ab91906117cc565b60405180910390a250565b6108be6114e8565b6108c86000611566565b565b60026020528060005260406000206000915090508060000154908060010160009054906101000a900460ff16908060020154908060030160009054906101000a900473ffffffffffffffffffffffffffffffffffffffff16908060030160149054906101000a900460ff16905085565b60008060009054906101000a900473ffffffffffffffffffffffffffffffffffffffff16905090565b60046020528060005260406000206000915090508060000160009054906101000a900460ff16908060010154908060020154908060030154908060040154905085565b600560149054906101000a900460ff1681565b600460003373ffffffffffffffffffffffffffffffffffffffff1673ffffffffffffffffffffffffffffffffffffffff16815260200190815260200160002060000160009054906101000a900460ff16610a48576040517f08c379a0000000000000000000000000000000000000000000000000000000008152600401610a3f90611ec4565b60405180910390fd5b6000600260008481526020019081526020016000206000015411610aa1576040517f08c379a0000000000000000000000000000000000000000000000000000000008152600401610a9890611f30565b60405180910390fd5b600a6002600084815260200190815260200160002060010160009054906101000a900460ff1660ff1610610b0a576040517f08c379a0000000000000000000000000000000000000000000000000000000008152600401610b0190611fc2565b60405180910390fd5b600073ffffffffffffffffffffffffffffffffffffffff166002600084815260200190815260200160002060030160009054906101000a900473ffffffffffffffffffffffffffffffffffffffff1673ffffffffffffffffffffffffffffffffffffffff1614158015610bde57503373ffffffffffffffffffffffffffffffffffffffff166002600084815260200190815260200160002060030160009054906101000a900473ffffffffffffffffffffffffffffffffffffffff1673ffffffffffffffffffffffffffffffffffffffff16145b610c1d576040517f08c379a0000000000000000000000000000000000000000000000000000000008152600401610c1490612054565b60405180910390fd5b6003600083815260200190815260200160002060405180604001604052808381526020013373ffffffffffffffffffffffffffffffffffffffff1681525090806001815401808255809150506001900390600052602060002090600202016000909190919091506000820151816000019081610c999190612220565b5060208201518160010160006101000a81548173ffffffffffffffffffffffffffffffffffffffff021916908373ffffffffffffffffffffffffffffffffffffffff160217905550505060026000838152602001908152602001600020600101600081819054906101000a900460ff1680929190610d16906122f2565b91906101000a81548160ff021916908360ff16021790555050600460003373ffffffffffffffffffffffffffffffffffffffff1673ffffffffffffffffffffffffffffffffffffffff1681526020019081526020016000206001016000815480929190610d8290611cc7565b9190505550600015156002600084815260200190815260200160002060030160149054906101000a900460ff16151503610e9f57600560009054906101000a900473ffffffffffffffffffffffffffffffffffffffff1673ffffffffffffffffffffffffffffffffffffffff166323b872dd303360026000878152602001908152602001600020600201546040518463ffffffff1660e01b8152600401610e2b93929190611d0f565b6020604051808303816000875af1158015610e4a573d6000803e3d6000fd5b505050506040513d601f19601f82011682018060405250810190610e6e9190611d72565b5060016002600084815260200190815260200160002060030160146101000a81548160ff0219169083151502179055505b3373ffffffffffffffffffffffffffffffffffffffff167f597ab0ec03553e1b1690d344b831dc2142063f05375a6aed1f9348a1d60810988383604051610ee792919061231b565b60405180910390a25050565b8160036000858152602001908152602001600020805490501015610f4c576040517f08c379a0000000000000000000000000000000000000000000000000000000008152600401610f4390612397565b60405180910390fd5b600081118015610f5c5750600a81105b610f9b576040517f08c379a0000000000000000000000000000000000000000000000000000000008152600401610f9290612403565b60405180910390fd5b6103e881610fa99190612423565b9050600160046000600360008781526020019081526020016000208581548110610fd657610fd5612465565b5b906000526020600020906002020160010160009054906101000a900473ffffffffffffffffffffffffffffffffffffffff1673ffffffffffffffffffffffffffffffffffffffff1673ffffffffffffffffffffffffffffffffffffffff168152602001908152602001600020600301546110509190612494565b816004600060036000888152602001908152602001600020868154811061107a57611079612465565b5b906000526020600020906002020160010160009054906101000a900473ffffffffffffffffffffffffffffffffffffffff1673ffffffffffffffffffffffffffffffffffffffff1673ffffffffffffffffffffffffffffffffffffffff168152602001908152602001600020600301546004600060036000898152602001908152602001600020878154811061111357611112612465565b5b906000526020600020906002020160010160009054906101000a900473ffffffffffffffffffffffffffffffffffffffff1673ffffffffffffffffffffffffffffffffffffffff1673ffffffffffffffffffffffffffffffffffffffff1681526020019081526020016000206002015461118d9190612423565b6111979190612494565b6111a191906124f7565b600460006003600087815260200190815260200160002085815481106111ca576111c9612465565b5b906000526020600020906002020160010160009054906101000a900473ffffffffffffffffffffffffffffffffffffffff1673ffffffffffffffffffffffffffffffffffffffff1673ffffffffffffffffffffffffffffffffffffffff168152602001908152602001600020600201819055506004600060036000868152602001908152602001600020848154811061126657611265612465565b5b906000526020600020906002020160010160009054906101000a900473ffffffffffffffffffffffffffffffffffffffff1673ffffffffffffffffffffffffffffffffffffffff1673ffffffffffffffffffffffffffffffffffffffff16815260200190815260200160002060030160008154809291906112e690611cc7565b9190505550600560009054906101000a900473ffffffffffffffffffffffffffffffffffffffff1673ffffffffffffffffffffffffffffffffffffffff166340c10f193360056040518363ffffffff1660e01b8152600401611349929190612528565b600060405180830381600087803b15801561136357600080fd5b505af1158015611377573d6000803e3d6000fd5b505050503373ffffffffffffffffffffffffffffffffffffffff166003600085815260200190815260200160002083815481106113b7576113b6612465565b5b906000526020600020906002020160010160009054906101000a900473ffffffffffffffffffffffffffffffffffffffff1673ffffffffffffffffffffffffffffffffffffffff167ff49f995b327c28fc5cda0aee082bb67f397a2bc3359855e93a41492de99d543085858560405161143293929190612551565b60405180910390a3505050565b6114476114e8565b600073ffffffffffffffffffffffffffffffffffffffff168173ffffffffffffffffffffffffffffffffffffffff16036114b6576040517f08c379a00000000000000000000000000000000000000000000000000000000081526004016114ad906125fa565b60405180910390fd5b6114bf81611566565b50565b600560009054906101000a900473ffffffffffffffffffffffffffffffffffffffff1681565b6114f061162a565b73ffffffffffffffffffffffffffffffffffffffff1661150e61093a565b73ffffffffffffffffffffffffffffffffffffffff1614611564576040517f08c379a000000000000000000000000000000000000000000000000000000000815260040161155b90612666565b60405180910390fd5b565b60008060009054906101000a900473ffffffffffffffffffffffffffffffffffffffff169050816000806101000a81548173ffffffffffffffffffffffffffffffffffffffff021916908373ffffffffffffffffffffffffffffffffffffffff1602179055508173ffffffffffffffffffffffffffffffffffffffff168173ffffffffffffffffffffffffffffffffffffffff167f8be0079c531659141344cd1fd0a4f28419497f9722a3daafe3b4186f6b6457e060405160405180910390a35050565b600033905090565b6000604051905090565b600080fd5b600080fd5b6000819050919050565b61165981611646565b811461166457600080fd5b50565b60008135905061167681611650565b92915050565b600080604083850312156116935761169261163c565b5b60006116a185828601611667565b92505060206116b285828601611667565b9150509250929050565b600081519050919050565b600082825260208201905092915050565b60005b838110156116f65780820151818401526020810190506116db565b60008484015250505050565b6000601f19601f8301169050919050565b600061171e826116bc565b61172881856116c7565b93506117388185602086016116d8565b61174181611702565b840191505092915050565b600073ffffffffffffffffffffffffffffffffffffffff82169050919050565b60006117778261174c565b9050919050565b6117878161176c565b82525050565b600060408201905081810360008301526117a78185611713565b90506117b6602083018461177e565b9392505050565b6117c681611646565b82525050565b60006020820190506117e160008301846117bd565b92915050565b600080fd5b600080fd5b600080fd5b60008083601f84011261180c5761180b6117e7565b5b8235905067ffffffffffffffff811115611829576118286117ec565b5b602083019150836001820283011115611845576118446117f1565b5b9250929050565b6118558161176c565b811461186057600080fd5b50565b6000813590506118728161184c565b92915050565b600080600080606085870312156118925761189161163c565b5b600085013567ffffffffffffffff8111156118b0576118af611641565b5b6118bc878288016117f6565b945094505060206118cf87828801611863565b92505060406118e087828801611667565b91505092959194509250565b6000602082840312156119025761190161163c565b5b600061191084828501611863565b91505092915050565b60006020828403121561192f5761192e61163c565b5b600061193d84828501611667565b91505092915050565b600060ff82169050919050565b61195c81611946565b82525050565b60008115159050919050565b61197781611962565b82525050565b600060a08201905061199260008301886117bd565b61199f6020830187611953565b6119ac60408301866117bd565b6119b9606083018561177e565b6119c6608083018461196e565b9695505050505050565b60006020820190506119e5600083018461177e565b92915050565b600060a082019050611a00600083018861196e565b611a0d60208301876117bd565b611a1a60408301866117bd565b611a2760608301856117bd565b611a3460808301846117bd565b9695505050505050565b6000602082019050611a53600083018461196e565b92915050565b600080fd5b7f4e487b7100000000000000000000000000000000000000000000000000000000600052604160045260246000fd5b611a9682611702565b810181811067ffffffffffffffff82111715611ab557611ab4611a5e565b5b80604052505050565b6000611ac8611632565b9050611ad48282611a8d565b919050565b600067ffffffffffffffff821115611af457611af3611a5e565b5b611afd82611702565b9050602081019050919050565b82818337600083830152505050565b6000611b2c611b2784611ad9565b611abe565b905082815260208101848484011115611b4857611b47611a59565b5b611b53848285611b0a565b509392505050565b600082601f830112611b7057611b6f6117e7565b5b8135611b80848260208601611b19565b91505092915050565b60008060408385031215611ba057611b9f61163c565b5b6000611bae85828601611667565b925050602083013567ffffffffffffffff811115611bcf57611bce611641565b5b611bdb85828601611b5b565b9150509250929050565b600080600060608486031215611bfe57611bfd61163c565b5b6000611c0c86828701611667565b9350506020611c1d86828701611667565b9250506040611c2e86828701611667565b9150509250925092565b7f4e487b7100000000000000000000000000000000000000000000000000000000600052602260045260246000fd5b60006002820490506001821680611c7f57607f821691505b602082108103611c9257611c91611c38565b5b50919050565b7f4e487b7100000000000000000000000000000000000000000000000000000000600052601160045260246000fd5b6000611cd282611646565b91507fffffffffffffffffffffffffffffffffffffffffffffffffffffffffffffffff8203611d0457611d03611c98565b5b600182019050919050565b6000606082019050611d24600083018661177e565b611d31602083018561177e565b611d3e60408301846117bd565b949350505050565b611d4f81611962565b8114611d5a57600080fd5b50565b600081519050611d6c81611d46565b92915050565b600060208284031215611d8857611d8761163c565b5b6000611d9684828501611d5d565b91505092915050565b6000611dab83856116c7565b9350611db8838584611b0a565b611dc183611702565b840190509392505050565b6000606082019050611de160008301876117bd565b8181036020830152611df4818587611d9f565b9050611e0360408301846117bd565b95945050505050565b7f546f6b656e206164647265737320697320616c72656164792073657400000000600082015250565b6000611e42601c836116c7565b9150611e4d82611e0c565b602082019050919050565b60006020820190508181036000830152611e7181611e35565b9050919050565b7f526573706f6e646572206973206e6f7420616374697665000000000000000000600082015250565b6000611eae6017836116c7565b9150611eb982611e78565b602082019050919050565b60006020820190508181036000830152611edd81611ea1565b9050919050565b7f5265717565737420646f6573206e6f7420657869737400000000000000000000600082015250565b6000611f1a6016836116c7565b9150611f2582611ee4565b602082019050919050565b60006020820190508181036000830152611f4981611f0d565b9050919050565b7f52657175657374206861732072656163686564206d617820696e666572656e6360008201527f6573000000000000000000000000000000000000000000000000000000000000602082015250565b6000611fac6022836116c7565b9150611fb782611f50565b604082019050919050565b60006020820190508181036000830152611fdb81611f9f565b9050919050565b7f526573706f6e646572206973206e6f742074686520726573706f6e646572206660008201527f6f72207468697320726571756573740000000000000000000000000000000000602082015250565b600061203e602f836116c7565b915061204982611fe2565b604082019050919050565b6000602082019050818103600083015261206d81612031565b9050919050565b60008190508160005260206000209050919050565b60006020601f8301049050919050565b600082821b905092915050565b6000600883026120d67fffffffffffffffffffffffffffffffffffffffffffffffffffffffffffffffff82612099565b6120e08683612099565b95508019841693508086168417925050509392505050565b6000819050919050565b600061211d61211861211384611646565b6120f8565b611646565b9050919050565b6000819050919050565b61213783612102565b61214b61214382612124565b8484546120a6565b825550505050565b600090565b612160612153565b61216b81848461212e565b505050565b5b8181101561218f57612184600082612158565b600181019050612171565b5050565b601f8211156121d4576121a581612074565b6121ae84612089565b810160208510156121bd578190505b6121d16121c985612089565b830182612170565b50505b505050565b600082821c905092915050565b60006121f7600019846008026121d9565b1980831691505092915050565b600061221083836121e6565b9150826002028217905092915050565b612229826116bc565b67ffffffffffffffff81111561224257612241611a5e565b5b61224c8254611c67565b612257828285612193565b600060209050601f83116001811461228a5760008415612278578287015190505b6122828582612204565b8655506122ea565b601f19841661229886612074565b60005b828110156122c05784890151825560018201915060208501945060208101905061229b565b868310156122dd57848901516122d9601f8916826121e6565b8355505b6001600288020188555050505b505050505050565b60006122fd82611946565b915060ff82036123105761230f611c98565b5b600182019050919050565b600060408201905061233060008301856117bd565b81810360208301526123428184611713565b90509392505050565b7f4e6f207375636820726573706f6e73657320666f722072657175657374000000600082015250565b6000612381601d836116c7565b915061238c8261234b565b602082019050919050565b600060208201905081810360008301526123b081612374565b9050919050565b7f726174696e67206d757374206265206265747765656e203120616e6420313000600082015250565b60006123ed601f836116c7565b91506123f8826123b7565b602082019050919050565b6000602082019050818103600083015261241c816123e0565b9050919050565b600061242e82611646565b915061243983611646565b925082820261244781611646565b9150828204841483151761245e5761245d611c98565b5b5092915050565b7f4e487b7100000000000000000000000000000000000000000000000000000000600052603260045260246000fd5b600061249f82611646565b91506124aa83611646565b92508282019050808211156124c2576124c1611c98565b5b92915050565b7f4e487b7100000000000000000000000000000000000000000000000000000000600052601260045260246000fd5b600061250282611646565b915061250d83611646565b92508261251d5761251c6124c8565b5b828204905092915050565b600060408201905061253d600083018561177e565b61254a60208301846117bd565b9392505050565b600060608201905061256660008301866117bd565b61257360208301856117bd565b61258060408301846117bd565b949350505050565b7f4f776e61626c653a206e6577206f776e657220697320746865207a65726f206160008201527f6464726573730000000000000000000000000000000000000000000000000000602082015250565b60006125e46026836116c7565b91506125ef82612588565b604082019050919050565b60006020820190508181036000830152612613816125d7565b9050919050565b7f4f776e61626c653a2063616c6c6572206973206e6f7420746865206f776e6572600082015250565b60006126506020836116c7565b915061265b8261261a565b602082019050919050565b6000602082019050818103600083015261267f81612643565b905091905056fea2646970667358221220d2305354228a9275489e28c7aecc7291fb4a4516fa60a55e6604b0144a37f69c64736f6c63430008110033",
  "linkReferences": {},
  "deployedLinkReferences": {}
}