{
  "_format": "hh-sol-artifact-1",
  "contractName": "DecentAI",
  "sourceName": "contracts/DecentAI.sol",
  "abi": [
    {
      "inputs": [],
      "stateMutability": "nonpayable",
      "type": "constructor"
    },
    {
      "anonymous": false,
      "inputs": [
        {
          "indexed": true,
          "internalType": "address",
          "name": "owner",
          "type": "address"
        },
        {
          "indexed": true,
          "internalType": "address",
          "name": "approved",
          "type": "address"
        },
        {
          "indexed": true,
          "internalType": "uint256",
          "name": "tokenId",
          "type": "uint256"
        }
      ],
      "name": "Approval",
      "type": "event"
    },
    {
      "anonymous": false,
      "inputs": [
        {
          "indexed": true,
          "internalType": "address",
          "name": "owner",
          "type": "address"
        },
        {
          "indexed": true,
          "internalType": "address",
          "name": "operator",
          "type": "address"
        },
        {
          "indexed": false,
          "internalType": "bool",
          "name": "approved",
          "type": "bool"
        }
      ],
      "name": "ApprovalForAll",
      "type": "event"
    },
    {
      "anonymous": false,
      "inputs": [
        {
          "indexed": true,
          "internalType": "address",
          "name": "previousOwner",
          "type": "address"
        },
        {
          "indexed": true,
          "internalType": "address",
          "name": "newOwner",
          "type": "address"
        }
      ],
      "name": "OwnershipTransferred",
      "type": "event"
    },
    {
      "anonymous": false,
      "inputs": [
        {
          "indexed": false,
          "internalType": "uint256",
          "name": "requestId",
          "type": "uint256"
        },
        {
          "indexed": false,
          "internalType": "uint256",
          "name": "inferenceId",
          "type": "uint256"
        },
        {
          "indexed": true,
          "internalType": "address",
          "name": "responder",
          "type": "address"
        },
        {
          "indexed": true,
          "internalType": "address",
          "name": "rater",
          "type": "address"
        },
        {
          "indexed": false,
          "internalType": "uint256",
          "name": "rating",
          "type": "uint256"
        }
      ],
      "name": "RatingRecieved",
      "type": "event"
    },
    {
      "anonymous": false,
      "inputs": [
        {
          "indexed": true,
          "internalType": "address",
          "name": "requestor",
          "type": "address"
        },
        {
          "indexed": false,
          "internalType": "uint256",
          "name": "requestId",
          "type": "uint256"
        },
        {
          "indexed": false,
          "internalType": "string",
          "name": "prompt",
          "type": "string"
        },
        {
          "indexed": false,
          "internalType": "uint256",
          "name": "offer",
          "type": "uint256"
        },
        {
          "indexed": true,
          "internalType": "address",
          "name": "responder",
          "type": "address"
        }
      ],
      "name": "RequestRecieved",
      "type": "event"
    },
    {
      "anonymous": false,
      "inputs": [
        {
          "indexed": true,
          "internalType": "address",
          "name": "responder",
          "type": "address"
        },
        {
          "indexed": false,
          "internalType": "uint256",
          "name": "cost",
          "type": "uint256"
        },
        {
          "indexed": false,
          "internalType": "uint256",
          "name": "tokenId",
          "type": "uint256"
        }
      ],
      "name": "ResponderAdded",
      "type": "event"
    },
    {
      "anonymous": false,
      "inputs": [
        {
          "indexed": true,
          "internalType": "address",
          "name": "responder",
          "type": "address"
        }
      ],
      "name": "ResponderRemoved",
      "type": "event"
    },
    {
      "anonymous": false,
      "inputs": [
        {
          "indexed": false,
          "internalType": "uint256",
          "name": "requestId",
          "type": "uint256"
        },
        {
          "indexed": true,
          "internalType": "address",
          "name": "responder",
          "type": "address"
        },
        {
          "indexed": false,
          "internalType": "string",
          "name": "url",
          "type": "string"
        }
      ],
      "name": "ResponseRecieved",
      "type": "event"
    },
    {
      "anonymous": false,
      "inputs": [
        {
          "indexed": true,
          "internalType": "address",
          "name": "from",
          "type": "address"
        },
        {
          "indexed": true,
          "internalType": "address",
          "name": "to",
          "type": "address"
        },
        {
          "indexed": true,
          "internalType": "uint256",
          "name": "tokenId",
          "type": "uint256"
        }
      ],
      "name": "Transfer",
      "type": "event"
    },
    {
      "inputs": [],
      "name": "MAX_INFERENCES",
      "outputs": [
        {
          "internalType": "uint256",
          "name": "",
          "type": "uint256"
        }
      ],
      "stateMutability": "view",
      "type": "function"
    },
    {
      "inputs": [],
      "name": "MIN_INFERENCES",
      "outputs": [
        {
          "internalType": "uint256",
          "name": "",
          "type": "uint256"
        }
      ],
      "stateMutability": "view",
      "type": "function"
    },
    {
      "inputs": [],
      "name": "RATING_REWARD",
      "outputs": [
        {
          "internalType": "uint256",
          "name": "",
          "type": "uint256"
        }
      ],
      "stateMutability": "view",
      "type": "function"
    },
    {
      "inputs": [],
      "name": "TIMEOUT",
      "outputs": [
        {
          "internalType": "uint256",
          "name": "",
          "type": "uint256"
        }
      ],
      "stateMutability": "view",
      "type": "function"
    },
    {
      "inputs": [
        {
          "internalType": "address",
          "name": "to",
          "type": "address"
        },
        {
          "internalType": "uint256",
          "name": "tokenId",
          "type": "uint256"
        }
      ],
      "name": "approve",
      "outputs": [],
      "stateMutability": "nonpayable",
      "type": "function"
    },
    {
      "inputs": [
        {
          "internalType": "address",
          "name": "owner",
          "type": "address"
        }
      ],
      "name": "balanceOf",
      "outputs": [
        {
          "internalType": "uint256",
          "name": "",
          "type": "uint256"
        }
      ],
      "stateMutability": "view",
      "type": "function"
    },
    {
      "inputs": [
        {
          "internalType": "uint256",
          "name": "tokenId",
          "type": "uint256"
        }
      ],
      "name": "getApproved",
      "outputs": [
        {
          "internalType": "address",
          "name": "",
          "type": "address"
        }
      ],
      "stateMutability": "view",
      "type": "function"
    },
    {
      "inputs": [
        {
          "internalType": "address",
          "name": "owner",
          "type": "address"
        },
        {
          "internalType": "address",
          "name": "operator",
          "type": "address"
        }
      ],
      "name": "isApprovedForAll",
      "outputs": [
        {
          "internalType": "bool",
          "name": "",
          "type": "bool"
        }
      ],
      "stateMutability": "view",
      "type": "function"
    },
    {
      "inputs": [],
      "name": "name",
      "outputs": [
        {
          "internalType": "string",
          "name": "",
          "type": "string"
        }
      ],
      "stateMutability": "view",
      "type": "function"
    },
    {
      "inputs": [],
      "name": "nodeAddress",
      "outputs": [
        {
          "internalType": "address",
          "name": "",
          "type": "address"
        }
      ],
      "stateMutability": "view",
      "type": "function"
    },
    {
      "inputs": [],
      "name": "nodeAddressSet",
      "outputs": [
        {
          "internalType": "bool",
          "name": "",
          "type": "bool"
        }
      ],
      "stateMutability": "view",
      "type": "function"
    },
    {
      "inputs": [],
      "name": "owner",
      "outputs": [
        {
          "internalType": "address",
          "name": "",
          "type": "address"
        }
      ],
      "stateMutability": "view",
      "type": "function"
    },
    {
      "inputs": [
        {
          "internalType": "uint256",
          "name": "tokenId",
          "type": "uint256"
        }
      ],
      "name": "ownerOf",
      "outputs": [
        {
          "internalType": "address",
          "name": "",
          "type": "address"
        }
      ],
      "stateMutability": "view",
      "type": "function"
    },
    {
      "inputs": [
        {
          "internalType": "uint256",
          "name": "id",
          "type": "uint256"
        },
        {
          "internalType": "uint256",
          "name": "inferenceId",
          "type": "uint256"
        },
        {
          "internalType": "uint256",
          "name": "rating",
          "type": "uint256"
        }
      ],
      "name": "rateInference",
      "outputs": [],
      "stateMutability": "nonpayable",
      "type": "function"
    },
    {
      "inputs": [
        {
          "internalType": "uint256",
          "name": "id",
          "type": "uint256"
        },
        {
          "internalType": "string",
          "name": "url",
          "type": "string"
        }
      ],
      "name": "recieveInference",
      "outputs": [],
      "stateMutability": "nonpayable",
      "type": "function"
    },
    {
      "inputs": [
        {
          "internalType": "uint256",
          "name": "cost",
          "type": "uint256"
        },
        {
          "internalType": "string",
          "name": "url",
          "type": "string"
        }
      ],
      "name": "registerResponder",
      "outputs": [],
      "stateMutability": "nonpayable",
      "type": "function"
    },
    {
      "inputs": [
        {
          "internalType": "address",
          "name": "responder",
          "type": "address"
        }
      ],
      "name": "removeResponder",
      "outputs": [],
      "stateMutability": "nonpayable",
      "type": "function"
    },
    {
      "inputs": [],
      "name": "renounceOwnership",
      "outputs": [],
      "stateMutability": "nonpayable",
      "type": "function"
    },
    {
      "inputs": [],
      "name": "requestId",
      "outputs": [
        {
          "internalType": "uint256",
          "name": "",
          "type": "uint256"
        }
      ],
      "stateMutability": "view",
      "type": "function"
    },
    {
      "inputs": [
        {
          "internalType": "string",
          "name": "prompt",
          "type": "string"
        },
        {
          "internalType": "address",
          "name": "responder",
          "type": "address"
        },
        {
          "internalType": "uint256",
          "name": "offer",
          "type": "uint256"
        }
      ],
      "name": "requestInference",
      "outputs": [],
      "stateMutability": "nonpayable",
      "type": "function"
    },
    {
      "inputs": [
        {
          "internalType": "uint256",
          "name": "",
          "type": "uint256"
        }
      ],
      "name": "requests",
      "outputs": [
        {
          "internalType": "uint256",
          "name": "start",
          "type": "uint256"
        },
        {
          "internalType": "uint8",
          "name": "countInferences",
          "type": "uint8"
        },
        {
          "internalType": "uint256",
          "name": "offer",
          "type": "uint256"
        },
        {
          "internalType": "address",
          "name": "responder",
          "type": "address"
        },
        {
          "internalType": "bool",
          "name": "paid",
          "type": "bool"
        },
        {
          "internalType": "address",
          "name": "requestor",
          "type": "address"
        }
      ],
      "stateMutability": "view",
      "type": "function"
    },
    {
      "inputs": [
        {
          "internalType": "address",
          "name": "",
          "type": "address"
        }
      ],
      "name": "responders",
      "outputs": [
        {
          "internalType": "bool",
          "name": "active",
          "type": "bool"
        },
        {
          "internalType": "uint256",
          "name": "countInferences",
          "type": "uint256"
        },
        {
          "internalType": "uint256",
          "name": "averageRating",
          "type": "uint256"
        },
        {
          "internalType": "uint256",
          "name": "countRating",
          "type": "uint256"
        },
        {
          "internalType": "uint256",
          "name": "cost",
          "type": "uint256"
        }
      ],
      "stateMutability": "view",
      "type": "function"
    },
    {
      "inputs": [
        {
          "internalType": "uint256",
          "name": "",
          "type": "uint256"
        },
        {
          "internalType": "uint256",
          "name": "",
          "type": "uint256"
        }
      ],
      "name": "responses",
      "outputs": [
        {
          "internalType": "string",
          "name": "url",
          "type": "string"
        },
        {
          "internalType": "address",
          "name": "responder",
          "type": "address"
        }
      ],
      "stateMutability": "view",
      "type": "function"
    },
    {
      "inputs": [
        {
          "internalType": "address",
          "name": "to",
          "type": "address"
        },
        {
          "internalType": "string",
          "name": "uri",
          "type": "string"
        }
      ],
      "name": "safeMint",
      "outputs": [],
      "stateMutability": "nonpayable",
      "type": "function"
    },
    {
      "inputs": [
        {
          "internalType": "address",
          "name": "from",
          "type": "address"
        },
        {
          "internalType": "address",
          "name": "to",
          "type": "address"
        },
        {
          "internalType": "uint256",
          "name": "tokenId",
          "type": "uint256"
        }
      ],
      "name": "safeTransferFrom",
      "outputs": [],
      "stateMutability": "nonpayable",
      "type": "function"
    },
    {
      "inputs": [
        {
          "internalType": "address",
          "name": "from",
          "type": "address"
        },
        {
          "internalType": "address",
          "name": "to",
          "type": "address"
        },
        {
          "internalType": "uint256",
          "name": "tokenId",
          "type": "uint256"
        },
        {
          "internalType": "bytes",
          "name": "data",
          "type": "bytes"
        }
      ],
      "name": "safeTransferFrom",
      "outputs": [],
      "stateMutability": "nonpayable",
      "type": "function"
    },
    {
      "inputs": [
        {
          "internalType": "address",
          "name": "operator",
          "type": "address"
        },
        {
          "internalType": "bool",
          "name": "approved",
          "type": "bool"
        }
      ],
      "name": "setApprovalForAll",
      "outputs": [],
      "stateMutability": "nonpayable",
      "type": "function"
    },
    {
      "inputs": [
        {
          "internalType": "address",
          "name": "_nodeAddress",
          "type": "address"
        }
      ],
      "name": "setNodeAddress",
      "outputs": [],
      "stateMutability": "nonpayable",
      "type": "function"
    },
    {
      "inputs": [
        {
          "internalType": "address",
          "name": "_token",
          "type": "address"
        }
      ],
      "name": "setToken",
      "outputs": [],
      "stateMutability": "nonpayable",
      "type": "function"
    },
    {
      "inputs": [
        {
          "internalType": "address",
          "name": "",
          "type": "address"
        }
      ],
      "name": "staked",
      "outputs": [
        {
          "internalType": "uint256",
          "name": "",
          "type": "uint256"
        }
      ],
      "stateMutability": "view",
      "type": "function"
    },
    {
      "inputs": [
        {
          "internalType": "bytes4",
          "name": "interfaceId",
          "type": "bytes4"
        }
      ],
      "name": "supportsInterface",
      "outputs": [
        {
          "internalType": "bool",
          "name": "",
          "type": "bool"
        }
      ],
      "stateMutability": "view",
      "type": "function"
    },
    {
      "inputs": [],
      "name": "symbol",
      "outputs": [
        {
          "internalType": "string",
          "name": "",
          "type": "string"
        }
      ],
      "stateMutability": "view",
      "type": "function"
    },
    {
      "inputs": [],
      "name": "token",
      "outputs": [
        {
          "internalType": "address",
          "name": "",
          "type": "address"
        }
      ],
      "stateMutability": "view",
      "type": "function"
    },
    {
      "inputs": [],
      "name": "tokenSet",
      "outputs": [
        {
          "internalType": "bool",
          "name": "",
          "type": "bool"
        }
      ],
      "stateMutability": "view",
      "type": "function"
    },
    {
      "inputs": [
        {
          "internalType": "uint256",
          "name": "tokenId",
          "type": "uint256"
        }
      ],
      "name": "tokenURI",
      "outputs": [
        {
          "internalType": "string",
          "name": "",
          "type": "string"
        }
      ],
      "stateMutability": "view",
      "type": "function"
    },
    {
      "inputs": [
        {
          "internalType": "address",
          "name": "from",
          "type": "address"
        },
        {
          "internalType": "address",
          "name": "to",
          "type": "address"
        },
        {
          "internalType": "uint256",
          "name": "tokenId",
          "type": "uint256"
        }
      ],
      "name": "transferFrom",
      "outputs": [],
      "stateMutability": "nonpayable",
      "type": "function"
    },
    {
      "inputs": [
        {
          "internalType": "address",
          "name": "newOwner",
          "type": "address"
        }
      ],
      "name": "transferOwnership",
      "outputs": [],
      "stateMutability": "nonpayable",
      "type": "function"
    },
    {
      "inputs": [
        {
          "internalType": "uint256",
          "name": "id",
          "type": "uint256"
        }
      ],
      "name": "withdrawRequest",
      "outputs": [],
      "stateMutability": "nonpayable",
      "type": "function"
    }
  ],
  "bytecode": "0x608060405260006009556000600e60146101000a81548160ff02191690831515021790555062015180600f55600a6010556000601160146101000a81548160ff0219169083151502179055503480156200005857600080fd5b506040518060400160405280600881526020017f446563656e7441490000000000000000000000000000000000000000000000008152506040518060400160405280600381526020017f44414900000000000000000000000000000000000000000000000000000000008152508160009081620000d6919062000459565b508060019081620000e8919062000459565b5050506200010b620000ff6200011160201b60201c565b6200011960201b60201c565b62000540565b600033905090565b6000600760009054906101000a900473ffffffffffffffffffffffffffffffffffffffff16905081600760006101000a81548173ffffffffffffffffffffffffffffffffffffffff021916908373ffffffffffffffffffffffffffffffffffffffff1602179055508173ffffffffffffffffffffffffffffffffffffffff168173ffffffffffffffffffffffffffffffffffffffff167f8be0079c531659141344cd1fd0a4f28419497f9722a3daafe3b4186f6b6457e060405160405180910390a35050565b600081519050919050565b7f4e487b7100000000000000000000000000000000000000000000000000000000600052604160045260246000fd5b7f4e487b7100000000000000000000000000000000000000000000000000000000600052602260045260246000fd5b600060028204905060018216806200026157607f821691505b60208210810362000277576200027662000219565b5b50919050565b60008190508160005260206000209050919050565b60006020601f8301049050919050565b600082821b905092915050565b600060088302620002e17fffffffffffffffffffffffffffffffffffffffffffffffffffffffffffffffff82620002a2565b620002ed8683620002a2565b95508019841693508086168417925050509392505050565b6000819050919050565b6000819050919050565b60006200033a620003346200032e8462000305565b6200030f565b62000305565b9050919050565b6000819050919050565b620003568362000319565b6200036e620003658262000341565b848454620002af565b825550505050565b600090565b6200038562000376565b620003928184846200034b565b505050565b5b81811015620003ba57620003ae6000826200037b565b60018101905062000398565b5050565b601f8211156200040957620003d3816200027d565b620003de8462000292565b81016020851015620003ee578190505b62000406620003fd8562000292565b83018262000397565b50505b505050565b600082821c905092915050565b60006200042e600019846008026200040e565b1980831691505092915050565b60006200044983836200041b565b9150826002028217905092915050565b6200046482620001df565b67ffffffffffffffff81111562000480576200047f620001ea565b5b6200048c825462000248565b62000499828285620003be565b600060209050601f831160018114620004d15760008415620004bc578287015190505b620004c885826200043b565b86555062000538565b601f198416620004e1866200027d565b60005b828110156200050b57848901518255600182019150602085019450602081019050620004e4565b868310156200052b578489015162000527601f8916826200041b565b8355505b6001600288020188555050505b505050505050565b6156f080620005506000396000f3fe608060405234801561001057600080fd5b50600436106102305760003560e01c806374899a7e11610130578063b9108df5116100b8578063ee292a301161007c578063ee292a30146106a3578063f2fde38b146106bf578063f56f48f2146106db578063f57f7a52146106f9578063fc0c546a1461071757610230565b8063b9108df5146105ed578063c87b56dd14610609578063d204c45e14610639578063d671425714610655578063e985e9c51461067357610230565b806395d89b41116100ff57806395d89b411461054b57806398807d8414610569578063a22cb46514610599578063aca7d7b6146105b5578063b88d4fde146105d157610230565b806374899a7e146104a857806381d12c58146104c45780638da5cb5b146104f957806391af9ba51461051757610230565b8063144fa6d7116101be5780634062482411610182578063406248241461040457806342842e0e146104225780636352211e1461043e57806370a082311461046e578063715018a61461049e57610230565b8063144fa6d714610374578063199428ae1461039057806323b872dd146103ae5780632aa8481f146103ca5780633af75565146103e857610230565b806306fdde031161020557806306fdde03146102d2578063081812fc146102f0578063095ea7b31461032057806309ffb32c1461033c5780630c91c6281461035857610230565b806257efc2146102355780626d6cae1461026657806301ffc9a71461028457806303fe8734146102b4575b600080fd5b61024f600480360381019061024a919061399d565b610735565b60405161025d929190613aae565b60405180910390f35b61026e61081e565b60405161027b9190613aed565b60405180910390f35b61029e60048036038101906102999190613b60565b610824565b6040516102ab9190613ba8565b60405180910390f35b6102bc610906565b6040516102c99190613aed565b60405180910390f35b6102da61090b565b6040516102e79190613bc3565b60405180910390f35b61030a60048036038101906103059190613be5565b61099d565b6040516103179190613c12565b60405180910390f35b61033a60048036038101906103359190613c59565b6109e3565b005b61035660048036038101906103519190613cfe565b610afa565b005b610372600480360381019061036d9190613ea2565b610dd9565b005b61038e60048036038101906103899190613efe565b610f8f565b005b610398611046565b6040516103a59190613aed565b60405180910390f35b6103c860048036038101906103c39190613f2b565b61104b565b005b6103d26110ab565b6040516103df9190613c12565b60405180910390f35b61040260048036038101906103fd9190613efe565b6110d1565b005b61040c61117a565b6040516104199190613ba8565b60405180910390f35b61043c60048036038101906104379190613f2b565b61118d565b005b61045860048036038101906104539190613be5565b6111ad565b6040516104659190613c12565b60405180910390f35b61048860048036038101906104839190613efe565b611233565b6040516104959190613aed565b60405180910390f35b6104a66112ea565b005b6104c260048036038101906104bd9190613be5565b6112fe565b005b6104de60048036038101906104d99190613be5565b611624565b6040516104f096959493929190613f9a565b60405180910390f35b6105016116ba565b60405161050e9190613c12565b60405180910390f35b610531600480360381019061052c9190613efe565b6116e4565b604051610542959493929190613ffb565b60405180910390f35b610553611727565b6040516105609190613bc3565b60405180910390f35b610583600480360381019061057e9190613efe565b6117b9565b6040516105909190613aed565b60405180910390f35b6105b360048036038101906105ae919061407a565b6117d1565b005b6105cf60048036038101906105ca9190613ea2565b6117e7565b005b6105eb60048036038101906105e6919061415b565b611f0a565b005b610607600480360381019061060291906141de565b611f6c565b005b610623600480360381019061061e9190613be5565b6124b8565b6040516106309190613bc3565b60405180910390f35b610653600480360381019061064e9190614231565b6124ca565b005b61065d612503565b60405161066a9190613ba8565b60405180910390f35b61068d6004803603810190610688919061428d565b612516565b60405161069a9190613ba8565b60405180910390f35b6106bd60048036038101906106b89190613efe565b6125aa565b005b6106d960048036038101906106d49190613efe565b612661565b005b6106e36126e4565b6040516106f09190613aed565b60405180910390f35b6107016126ea565b60405161070e9190613aed565b60405180910390f35b61071f6126f0565b60405161072c9190613c12565b60405180910390f35b600c602052816000526040600020818154811061075157600080fd5b906000526020600020906002020160009150915050806000018054610775906142fc565b80601f01602080910402602001604051908101604052809291908181526020018280546107a1906142fc565b80156107ee5780601f106107c3576101008083540402835291602001916107ee565b820191906000526020600020905b8154815290600101906020018083116107d157829003601f168201915b5050505050908060010160009054906101000a900473ffffffffffffffffffffffffffffffffffffffff16905082565b60095481565b60007f80ac58cd000000000000000000000000000000000000000000000000000000007bffffffffffffffffffffffffffffffffffffffffffffffffffffffff1916827bffffffffffffffffffffffffffffffffffffffffffffffffffffffff191614806108ef57507f5b5e139f000000000000000000000000000000000000000000000000000000007bffffffffffffffffffffffffffffffffffffffffffffffffffffffff1916827bffffffffffffffffffffffffffffffffffffffffffffffffffffffff1916145b806108ff57506108fe82612716565b5b9050919050565b600581565b60606000805461091a906142fc565b80601f0160208091040260200160405190810160405280929190818152602001828054610946906142fc565b80156109935780601f1061096857610100808354040283529160200191610993565b820191906000526020600020905b81548152906001019060200180831161097657829003601f168201915b5050505050905090565b60006109a882612780565b6004600083815260200190815260200160002060009054906101000a900473ffffffffffffffffffffffffffffffffffffffff169050919050565b60006109ee826111ad565b90508073ffffffffffffffffffffffffffffffffffffffff168373ffffffffffffffffffffffffffffffffffffffff1603610a5e576040517f08c379a0000000000000000000000000000000000000000000000000000000008152600401610a559061439f565b60405180910390fd5b8073ffffffffffffffffffffffffffffffffffffffff16610a7d6127cb565b73ffffffffffffffffffffffffffffffffffffffff161480610aac5750610aab81610aa66127cb565b612516565b5b610aeb576040517f08c379a0000000000000000000000000000000000000000000000000000000008152600401610ae290614431565b60405180910390fd5b610af583836127d3565b505050565b60096000815480929190610b0d90614480565b91905055506040518060c00160405280428152602001600060ff1681526020018281526020018373ffffffffffffffffffffffffffffffffffffffff1681526020016000151581526020013373ffffffffffffffffffffffffffffffffffffffff16815250600a600060095481526020019081526020016000206000820151816000015560208201518160010160006101000a81548160ff021916908360ff1602179055506040820151816002015560608201518160030160006101000a81548173ffffffffffffffffffffffffffffffffffffffff021916908373ffffffffffffffffffffffffffffffffffffffff16021790555060808201518160030160146101000a81548160ff02191690831515021790555060a08201518160040160006101000a81548173ffffffffffffffffffffffffffffffffffffffff021916908373ffffffffffffffffffffffffffffffffffffffff160217905550905050600e60009054906101000a900473ffffffffffffffffffffffffffffffffffffffff1673ffffffffffffffffffffffffffffffffffffffff166323b872dd3330846040518463ffffffff1660e01b8152600401610ccc939291906144c8565b6020604051808303816000875af1158015610ceb573d6000803e3d6000fd5b505050506040513d601f19601f82011682018060405250810190610d0f9190614514565b5080600b60003373ffffffffffffffffffffffffffffffffffffffff1673ffffffffffffffffffffffffffffffffffffffff1681526020019081526020016000206000828254610d5f9190614541565b925050819055508173ffffffffffffffffffffffffffffffffffffffff163373ffffffffffffffffffffffffffffffffffffffff167ff8f23455a4b0b1b1dfec700a18244d12c272650a9091f6a7cffe246ea1ccb996600954878786604051610dcb94939291906145a2565b60405180910390a350505050565b6040518060a0016040528060011515815260200160008152602001600081526020016000815260200183815250600d60003373ffffffffffffffffffffffffffffffffffffffff1673ffffffffffffffffffffffffffffffffffffffff16815260200190815260200160002060008201518160000160006101000a81548160ff021916908315150217905550602082015181600101556040820151816002015560608201518160030155608082015181600401559050506000601160009054906101000a900473ffffffffffffffffffffffffffffffffffffffff16905060008173ffffffffffffffffffffffffffffffffffffffff1663d204c45e33856040518363ffffffff1660e01b8152600401610ef49291906145e2565b6020604051808303816000875af1158015610f13573d6000803e3d6000fd5b505050506040513d601f19601f82011682018060405250810190610f379190614627565b90503373ffffffffffffffffffffffffffffffffffffffff167f4795a9c639c279d360c264b58a72b5def4ea21792a064d9bda18d3e9e3081dce8583604051610f81929190614654565b60405180910390a250505050565b610f9761288c565b600e60149054906101000a900460ff1615610fe7576040517f08c379a0000000000000000000000000000000000000000000000000000000008152600401610fde906146c9565b60405180910390fd5b80600e60006101000a81548173ffffffffffffffffffffffffffffffffffffffff021916908373ffffffffffffffffffffffffffffffffffffffff1602179055506001600e60146101000a81548160ff02191690831515021790555050565b600a81565b61105c6110566127cb565b8261290a565b61109b576040517f08c379a00000000000000000000000000000000000000000000000000000000081526004016110929061475b565b60405180910390fd5b6110a683838361299f565b505050565b601160009054906101000a900473ffffffffffffffffffffffffffffffffffffffff1681565b6110d961288c565b6000600d60008373ffffffffffffffffffffffffffffffffffffffff1673ffffffffffffffffffffffffffffffffffffffff16815260200190815260200160002060000160006101000a81548160ff0219169083151502179055508073ffffffffffffffffffffffffffffffffffffffff167f48dbfd25a38aa235ac710f3a9bbc9fcd127134208c407baea032dd0c0e2db24a60405160405180910390a250565b600e60149054906101000a900460ff1681565b6111a883838360405180602001604052806000815250611f0a565b505050565b6000806111b983612c98565b9050600073ffffffffffffffffffffffffffffffffffffffff168173ffffffffffffffffffffffffffffffffffffffff160361122a576040517f08c379a0000000000000000000000000000000000000000000000000000000008152600401611221906147c7565b60405180910390fd5b80915050919050565b60008073ffffffffffffffffffffffffffffffffffffffff168273ffffffffffffffffffffffffffffffffffffffff16036112a3576040517f08c379a000000000000000000000000000000000000000000000000000000000815260040161129a90614859565b60405180910390fd5b600360008373ffffffffffffffffffffffffffffffffffffffff1673ffffffffffffffffffffffffffffffffffffffff168152602001908152602001600020549050919050565b6112f261288c565b6112fc6000612cd5565b565b6000600a60008381526020019081526020016000206000015411611357576040517f08c379a000000000000000000000000000000000000000000000000000000000815260040161134e906148c5565b60405180910390fd5b3373ffffffffffffffffffffffffffffffffffffffff16600a600083815260200190815260200160002060040160009054906101000a900473ffffffffffffffffffffffffffffffffffffffff1673ffffffffffffffffffffffffffffffffffffffff16146113fb576040517f08c379a00000000000000000000000000000000000000000000000000000000081526004016113f290614931565b60405180910390fd5b42600f54600a6000848152602001908152602001600020600001546114209190614541565b10611460576040517f08c379a00000000000000000000000000000000000000000000000000000000081526004016114579061499d565b60405180910390fd5b600e60009054906101000a900473ffffffffffffffffffffffffffffffffffffffff1673ffffffffffffffffffffffffffffffffffffffff166323b872dd3033600a6000868152602001908152602001600020600201546040518463ffffffff1660e01b81526004016114d5939291906144c8565b6020604051808303816000875af11580156114f4573d6000803e3d6000fd5b505050506040513d601f19601f820116820180604052508101906115189190614514565b50600a600082815260200190815260200160002060020154600b60003373ffffffffffffffffffffffffffffffffffffffff1673ffffffffffffffffffffffffffffffffffffffff168152602001908152602001600020600082825461157e91906149bd565b92505081905550600a60008281526020019081526020016000206000808201600090556001820160006101000a81549060ff021916905560028201600090556003820160006101000a81549073ffffffffffffffffffffffffffffffffffffffff02191690556003820160146101000a81549060ff02191690556004820160006101000a81549073ffffffffffffffffffffffffffffffffffffffff0219169055505050565b600a6020528060005260406000206000915090508060000154908060010160009054906101000a900460ff16908060020154908060030160009054906101000a900473ffffffffffffffffffffffffffffffffffffffff16908060030160149054906101000a900460ff16908060040160009054906101000a900473ffffffffffffffffffffffffffffffffffffffff16905086565b6000600760009054906101000a900473ffffffffffffffffffffffffffffffffffffffff16905090565b600d6020528060005260406000206000915090508060000160009054906101000a900460ff16908060010154908060020154908060030154908060040154905085565b606060018054611736906142fc565b80601f0160208091040260200160405190810160405280929190818152602001828054611762906142fc565b80156117af5780601f10611784576101008083540402835291602001916117af565b820191906000526020600020905b81548152906001019060200180831161179257829003601f168201915b5050505050905090565b600b6020528060005260406000206000915090505481565b6117e36117dc6127cb565b8383612d9b565b5050565b600d60003373ffffffffffffffffffffffffffffffffffffffff1673ffffffffffffffffffffffffffffffffffffffff16815260200190815260200160002060000160009054906101000a900460ff16611876576040517f08c379a000000000000000000000000000000000000000000000000000000000815260040161186d90614a3d565b60405180910390fd5b6000600a600084815260200190815260200160002060000154116118cf576040517f08c379a00000000000000000000000000000000000000000000000000000000081526004016118c6906148c5565b60405180910390fd5b600a80600084815260200190815260200160002060010160009054906101000a900460ff1660ff1610611937576040517f08c379a000000000000000000000000000000000000000000000000000000000815260040161192e90614aa9565b60405180910390fd5b600073ffffffffffffffffffffffffffffffffffffffff16600a600084815260200190815260200160002060030160009054906101000a900473ffffffffffffffffffffffffffffffffffffffff1673ffffffffffffffffffffffffffffffffffffffff161480611a785750600073ffffffffffffffffffffffffffffffffffffffff16600a600084815260200190815260200160002060030160009054906101000a900473ffffffffffffffffffffffffffffffffffffffff1673ffffffffffffffffffffffffffffffffffffffff1614158015611a7757503373ffffffffffffffffffffffffffffffffffffffff16600a600084815260200190815260200160002060030160009054906101000a900473ffffffffffffffffffffffffffffffffffffffff1673ffffffffffffffffffffffffffffffffffffffff16145b5b611ab7576040517f08c379a0000000000000000000000000000000000000000000000000000000008152600401611aae90614b15565b60405180910390fd5b600a600083815260200190815260200160002060020154600d60003373ffffffffffffffffffffffffffffffffffffffff1673ffffffffffffffffffffffffffffffffffffffff168152602001908152602001600020600401541115611b52576040517f08c379a0000000000000000000000000000000000000000000000000000000008152600401611b4990614b81565b60405180910390fd5b600c600083815260200190815260200160002060405180604001604052808381526020013373ffffffffffffffffffffffffffffffffffffffff1681525090806001815401808255809150506001900390600052602060002090600202016000909190919091506000820151816000019081611bce9190614d4d565b5060208201518160010160006101000a81548173ffffffffffffffffffffffffffffffffffffffff021916908373ffffffffffffffffffffffffffffffffffffffff1602179055505050600a6000838152602001908152602001600020600101600081819054906101000a900460ff1680929190611c4b90614e1f565b91906101000a81548160ff021916908360ff16021790555050600d60003373ffffffffffffffffffffffffffffffffffffffff1673ffffffffffffffffffffffffffffffffffffffff1681526020019081526020016000206001016000815480929190611cb790614480565b919050555060001515600a600084815260200190815260200160002060030160149054906101000a900460ff16151503611dd457600e60009054906101000a900473ffffffffffffffffffffffffffffffffffffffff1673ffffffffffffffffffffffffffffffffffffffff166323b872dd3033600a6000878152602001908152602001600020600201546040518463ffffffff1660e01b8152600401611d60939291906144c8565b6020604051808303816000875af1158015611d7f573d6000803e3d6000fd5b505050506040513d601f19601f82011682018060405250810190611da39190614514565b506001600a600084815260200190815260200160002060030160146101000a81548160ff0219169083151502179055505b611e14600a600084815260200190815260200160002060040160009054906101000a900473ffffffffffffffffffffffffffffffffffffffff16826124ca565b600a600083815260200190815260200160002060020154600b6000600a600086815260200190815260200160002060040160009054906101000a900473ffffffffffffffffffffffffffffffffffffffff1673ffffffffffffffffffffffffffffffffffffffff1673ffffffffffffffffffffffffffffffffffffffff1681526020019081526020016000206000828254611eaf91906149bd565b925050819055503373ffffffffffffffffffffffffffffffffffffffff167f597ab0ec03553e1b1690d344b831dc2142063f05375a6aed1f9348a1d60810988383604051611efe929190614e48565b60405180910390a25050565b611f1b611f156127cb565b8361290a565b611f5a576040517f08c379a0000000000000000000000000000000000000000000000000000000008152600401611f519061475b565b60405180910390fd5b611f6684848484612f07565b50505050565b81600c6000858152602001908152602001600020805490501015611fc5576040517f08c379a0000000000000000000000000000000000000000000000000000000008152600401611fbc90614ec4565b60405180910390fd5b600081118015611fd55750600a81105b612014576040517f08c379a000000000000000000000000000000000000000000000000000000000815260040161200b90614f30565b60405180910390fd5b6103e8816120229190614f50565b90506001600d6000600c6000878152602001908152602001600020858154811061204f5761204e614f92565b5b906000526020600020906002020160010160009054906101000a900473ffffffffffffffffffffffffffffffffffffffff1673ffffffffffffffffffffffffffffffffffffffff1673ffffffffffffffffffffffffffffffffffffffff168152602001908152602001600020600301546120c99190614541565b81600d6000600c600088815260200190815260200160002086815481106120f3576120f2614f92565b5b906000526020600020906002020160010160009054906101000a900473ffffffffffffffffffffffffffffffffffffffff1673ffffffffffffffffffffffffffffffffffffffff1673ffffffffffffffffffffffffffffffffffffffff16815260200190815260200160002060030154600d6000600c6000898152602001908152602001600020878154811061218c5761218b614f92565b5b906000526020600020906002020160010160009054906101000a900473ffffffffffffffffffffffffffffffffffffffff1673ffffffffffffffffffffffffffffffffffffffff1673ffffffffffffffffffffffffffffffffffffffff168152602001908152602001600020600201546122069190614f50565b6122109190614541565b61221a9190614ff0565b600d6000600c6000878152602001908152602001600020858154811061224357612242614f92565b5b906000526020600020906002020160010160009054906101000a900473ffffffffffffffffffffffffffffffffffffffff1673ffffffffffffffffffffffffffffffffffffffff1673ffffffffffffffffffffffffffffffffffffffff16815260200190815260200160002060020181905550600d6000600c600086815260200190815260200160002084815481106122df576122de614f92565b5b906000526020600020906002020160010160009054906101000a900473ffffffffffffffffffffffffffffffffffffffff1673ffffffffffffffffffffffffffffffffffffffff1673ffffffffffffffffffffffffffffffffffffffff168152602001908152602001600020600301600081548092919061235f90614480565b9190505550600e60009054906101000a900473ffffffffffffffffffffffffffffffffffffffff1673ffffffffffffffffffffffffffffffffffffffff166340c10f193360056040518363ffffffff1660e01b81526004016123c2929190615021565b600060405180830381600087803b1580156123dc57600080fd5b505af11580156123f0573d6000803e3d6000fd5b505050503373ffffffffffffffffffffffffffffffffffffffff16600c600085815260200190815260200160002083815481106124305761242f614f92565b5b906000526020600020906002020160010160009054906101000a900473ffffffffffffffffffffffffffffffffffffffff1673ffffffffffffffffffffffffffffffffffffffff167ff49f995b327c28fc5cda0aee082bb67f397a2bc3359855e93a41492de99d54308585856040516124ab9392919061504a565b60405180910390a3505050565b60606124c382612f63565b9050919050565b6124d261288c565b60006124de6008613075565b90506124ea6008613083565b6124f48382613099565b6124fe81836130b7565b505050565b601160149054906101000a900460ff1681565b6000600560008473ffffffffffffffffffffffffffffffffffffffff1673ffffffffffffffffffffffffffffffffffffffff16815260200190815260200160002060008373ffffffffffffffffffffffffffffffffffffffff1673ffffffffffffffffffffffffffffffffffffffff16815260200190815260200160002060009054906101000a900460ff16905092915050565b6125b261288c565b601160149054906101000a900460ff1615612602576040517f08c379a00000000000000000000000000000000000000000000000000000000081526004016125f9906150cd565b60405180910390fd5b80601160006101000a81548173ffffffffffffffffffffffffffffffffffffffff021916908373ffffffffffffffffffffffffffffffffffffffff1602179055506001601160146101000a81548160ff02191690831515021790555050565b61266961288c565b600073ffffffffffffffffffffffffffffffffffffffff168173ffffffffffffffffffffffffffffffffffffffff16036126d8576040517f08c379a00000000000000000000000000000000000000000000000000000000081526004016126cf9061515f565b60405180910390fd5b6126e181612cd5565b50565b600f5481565b60105481565b600e60009054906101000a900473ffffffffffffffffffffffffffffffffffffffff1681565b60007f01ffc9a7000000000000000000000000000000000000000000000000000000007bffffffffffffffffffffffffffffffffffffffffffffffffffffffff1916827bffffffffffffffffffffffffffffffffffffffffffffffffffffffff1916149050919050565b61278981613124565b6127c8576040517f08c379a00000000000000000000000000000000000000000000000000000000081526004016127bf906147c7565b60405180910390fd5b50565b600033905090565b816004600083815260200190815260200160002060006101000a81548173ffffffffffffffffffffffffffffffffffffffff021916908373ffffffffffffffffffffffffffffffffffffffff160217905550808273ffffffffffffffffffffffffffffffffffffffff16612846836111ad565b73ffffffffffffffffffffffffffffffffffffffff167f8c5be1e5ebec7d5bd14f71427d1e84f3dd0314c0f7b2291e5b200ac8c7c3b92560405160405180910390a45050565b6128946127cb565b73ffffffffffffffffffffffffffffffffffffffff166128b26116ba565b73ffffffffffffffffffffffffffffffffffffffff1614612908576040517f08c379a00000000000000000000000000000000000000000000000000000000081526004016128ff906151cb565b60405180910390fd5b565b600080612916836111ad565b90508073ffffffffffffffffffffffffffffffffffffffff168473ffffffffffffffffffffffffffffffffffffffff16148061295857506129578185612516565b5b8061299657508373ffffffffffffffffffffffffffffffffffffffff1661297e8461099d565b73ffffffffffffffffffffffffffffffffffffffff16145b91505092915050565b8273ffffffffffffffffffffffffffffffffffffffff166129bf826111ad565b73ffffffffffffffffffffffffffffffffffffffff1614612a15576040517f08c379a0000000000000000000000000000000000000000000000000000000008152600401612a0c9061525d565b60405180910390fd5b600073ffffffffffffffffffffffffffffffffffffffff168273ffffffffffffffffffffffffffffffffffffffff1603612a84576040517f08c379a0000000000000000000000000000000000000000000000000000000008152600401612a7b906152ef565b60405180910390fd5b612a918383836001613165565b8273ffffffffffffffffffffffffffffffffffffffff16612ab1826111ad565b73ffffffffffffffffffffffffffffffffffffffff1614612b07576040517f08c379a0000000000000000000000000000000000000000000000000000000008152600401612afe9061525d565b60405180910390fd5b6004600082815260200190815260200160002060006101000a81549073ffffffffffffffffffffffffffffffffffffffff02191690556001600360008573ffffffffffffffffffffffffffffffffffffffff1673ffffffffffffffffffffffffffffffffffffffff168152602001908152602001600020600082825403925050819055506001600360008473ffffffffffffffffffffffffffffffffffffffff1673ffffffffffffffffffffffffffffffffffffffff16815260200190815260200160002060008282540192505081905550816002600083815260200190815260200160002060006101000a81548173ffffffffffffffffffffffffffffffffffffffff021916908373ffffffffffffffffffffffffffffffffffffffff160217905550808273ffffffffffffffffffffffffffffffffffffffff168473ffffffffffffffffffffffffffffffffffffffff167fddf252ad1be2c89b69c2b068fc378daa952ba7f163c4a11628f55a4df523b3ef60405160405180910390a4612c93838383600161328b565b505050565b60006002600083815260200190815260200160002060009054906101000a900473ffffffffffffffffffffffffffffffffffffffff169050919050565b6000600760009054906101000a900473ffffffffffffffffffffffffffffffffffffffff16905081600760006101000a81548173ffffffffffffffffffffffffffffffffffffffff021916908373ffffffffffffffffffffffffffffffffffffffff1602179055508173ffffffffffffffffffffffffffffffffffffffff168173ffffffffffffffffffffffffffffffffffffffff167f8be0079c531659141344cd1fd0a4f28419497f9722a3daafe3b4186f6b6457e060405160405180910390a35050565b8173ffffffffffffffffffffffffffffffffffffffff168373ffffffffffffffffffffffffffffffffffffffff1603612e09576040517f08c379a0000000000000000000000000000000000000000000000000000000008152600401612e009061535b565b60405180910390fd5b80600560008573ffffffffffffffffffffffffffffffffffffffff1673ffffffffffffffffffffffffffffffffffffffff16815260200190815260200160002060008473ffffffffffffffffffffffffffffffffffffffff1673ffffffffffffffffffffffffffffffffffffffff16815260200190815260200160002060006101000a81548160ff0219169083151502179055508173ffffffffffffffffffffffffffffffffffffffff168373ffffffffffffffffffffffffffffffffffffffff167f17307eab39ab6107e8899845ad3d59bd9653f200f220920489ca2b5937696c3183604051612efa9190613ba8565b60405180910390a3505050565b612f1284848461299f565b612f1e84848484613291565b612f5d576040517f08c379a0000000000000000000000000000000000000000000000000000000008152600401612f54906153ed565b60405180910390fd5b50505050565b6060612f6e82612780565b6000600660008481526020019081526020016000208054612f8e906142fc565b80601f0160208091040260200160405190810160405280929190818152602001828054612fba906142fc565b80156130075780601f10612fdc57610100808354040283529160200191613007565b820191906000526020600020905b815481529060010190602001808311612fea57829003601f168201915b505050505090506000613018613418565b9050600081510361302d578192505050613070565b60008251111561306257808260405160200161304a929190615449565b60405160208183030381529060405292505050613070565b61306b8461342f565b925050505b919050565b600081600001549050919050565b6001816000016000828254019250508190555050565b6130b3828260405180602001604052806000815250613497565b5050565b6130c082613124565b6130ff576040517f08c379a00000000000000000000000000000000000000000000000000000000081526004016130f6906154df565b60405180910390fd5b8060066000848152602001908152602001600020908161311f9190614d4d565b505050565b60008073ffffffffffffffffffffffffffffffffffffffff1661314683612c98565b73ffffffffffffffffffffffffffffffffffffffff1614159050919050565b600181111561328557600073ffffffffffffffffffffffffffffffffffffffff168473ffffffffffffffffffffffffffffffffffffffff16146131f95780600360008673ffffffffffffffffffffffffffffffffffffffff1673ffffffffffffffffffffffffffffffffffffffff16815260200190815260200160002060008282546131f191906149bd565b925050819055505b600073ffffffffffffffffffffffffffffffffffffffff168373ffffffffffffffffffffffffffffffffffffffff16146132845780600360008573ffffffffffffffffffffffffffffffffffffffff1673ffffffffffffffffffffffffffffffffffffffff168152602001908152602001600020600082825461327c9190614541565b925050819055505b5b50505050565b50505050565b60006132b28473ffffffffffffffffffffffffffffffffffffffff166134f2565b1561340b578373ffffffffffffffffffffffffffffffffffffffff1663150b7a026132db6127cb565b8786866040518563ffffffff1660e01b81526004016132fd9493929190615554565b6020604051808303816000875af192505050801561333957506040513d601f19601f8201168201806040525081019061333691906155b5565b60015b6133bb573d8060008114613369576040519150601f19603f3d011682016040523d82523d6000602084013e61336e565b606091505b5060008151036133b3576040517f08c379a00000000000000000000000000000000000000000000000000000000081526004016133aa906153ed565b60405180910390fd5b805181602001fd5b63150b7a0260e01b7bffffffffffffffffffffffffffffffffffffffffffffffffffffffff1916817bffffffffffffffffffffffffffffffffffffffffffffffffffffffff191614915050613410565b600190505b949350505050565b606060405180602001604052806000815250905090565b606061343a82612780565b6000613444613418565b90506000815111613464576040518060200160405280600081525061348f565b8061346e84613515565b60405160200161347f929190615449565b6040516020818303038152906040525b915050919050565b6134a183836135e3565b6134ae6000848484613291565b6134ed576040517f08c379a00000000000000000000000000000000000000000000000000000000081526004016134e4906153ed565b60405180910390fd5b505050565b6000808273ffffffffffffffffffffffffffffffffffffffff163b119050919050565b60606000600161352484613800565b01905060008167ffffffffffffffff81111561354357613542613d77565b5b6040519080825280601f01601f1916602001820160405280156135755781602001600182028036833780820191505090505b509050600082602001820190505b6001156135d8578080600190039150507f3031323334353637383961626364656600000000000000000000000000000000600a86061a8153600a85816135cc576135cb614fc1565b5b04945060008503613583575b819350505050919050565b600073ffffffffffffffffffffffffffffffffffffffff168273ffffffffffffffffffffffffffffffffffffffff1603613652576040517f08c379a00000000000000000000000000000000000000000000000000000000081526004016136499061562e565b60405180910390fd5b61365b81613124565b1561369b576040517f08c379a00000000000000000000000000000000000000000000000000000000081526004016136929061569a565b60405180910390fd5b6136a9600083836001613165565b6136b281613124565b156136f2576040517f08c379a00000000000000000000000000000000000000000000000000000000081526004016136e99061569a565b60405180910390fd5b6001600360008473ffffffffffffffffffffffffffffffffffffffff1673ffffffffffffffffffffffffffffffffffffffff16815260200190815260200160002060008282540192505081905550816002600083815260200190815260200160002060006101000a81548173ffffffffffffffffffffffffffffffffffffffff021916908373ffffffffffffffffffffffffffffffffffffffff160217905550808273ffffffffffffffffffffffffffffffffffffffff16600073ffffffffffffffffffffffffffffffffffffffff167fddf252ad1be2c89b69c2b068fc378daa952ba7f163c4a11628f55a4df523b3ef60405160405180910390a46137fc60008383600161328b565b5050565b600080600090507a184f03e93ff9f4daa797ed6e38ed64bf6a1f010000000000000000831061385e577a184f03e93ff9f4daa797ed6e38ed64bf6a1f010000000000000000838161385457613853614fc1565b5b0492506040810190505b6d04ee2d6d415b85acef8100000000831061389b576d04ee2d6d415b85acef8100000000838161389157613890614fc1565b5b0492506020810190505b662386f26fc1000083106138ca57662386f26fc1000083816138c0576138bf614fc1565b5b0492506010810190505b6305f5e10083106138f3576305f5e10083816138e9576138e8614fc1565b5b0492506008810190505b612710831061391857612710838161390e5761390d614fc1565b5b0492506004810190505b6064831061393b576064838161393157613930614fc1565b5b0492506002810190505b600a831061394a576001810190505b80915050919050565b6000604051905090565b600080fd5b600080fd5b6000819050919050565b61397a81613967565b811461398557600080fd5b50565b60008135905061399781613971565b92915050565b600080604083850312156139b4576139b361395d565b5b60006139c285828601613988565b92505060206139d385828601613988565b9150509250929050565b600081519050919050565b600082825260208201905092915050565b60005b83811015613a175780820151818401526020810190506139fc565b60008484015250505050565b6000601f19601f8301169050919050565b6000613a3f826139dd565b613a4981856139e8565b9350613a598185602086016139f9565b613a6281613a23565b840191505092915050565b600073ffffffffffffffffffffffffffffffffffffffff82169050919050565b6000613a9882613a6d565b9050919050565b613aa881613a8d565b82525050565b60006040820190508181036000830152613ac88185613a34565b9050613ad76020830184613a9f565b9392505050565b613ae781613967565b82525050565b6000602082019050613b026000830184613ade565b92915050565b60007fffffffff0000000000000000000000000000000000000000000000000000000082169050919050565b613b3d81613b08565b8114613b4857600080fd5b50565b600081359050613b5a81613b34565b92915050565b600060208284031215613b7657613b7561395d565b5b6000613b8484828501613b4b565b91505092915050565b60008115159050919050565b613ba281613b8d565b82525050565b6000602082019050613bbd6000830184613b99565b92915050565b60006020820190508181036000830152613bdd8184613a34565b905092915050565b600060208284031215613bfb57613bfa61395d565b5b6000613c0984828501613988565b91505092915050565b6000602082019050613c276000830184613a9f565b92915050565b613c3681613a8d565b8114613c4157600080fd5b50565b600081359050613c5381613c2d565b92915050565b60008060408385031215613c7057613c6f61395d565b5b6000613c7e85828601613c44565b9250506020613c8f85828601613988565b9150509250929050565b600080fd5b600080fd5b600080fd5b60008083601f840112613cbe57613cbd613c99565b5b8235905067ffffffffffffffff811115613cdb57613cda613c9e565b5b602083019150836001820283011115613cf757613cf6613ca3565b5b9250929050565b60008060008060608587031215613d1857613d1761395d565b5b600085013567ffffffffffffffff811115613d3657613d35613962565b5b613d4287828801613ca8565b94509450506020613d5587828801613c44565b9250506040613d6687828801613988565b91505092959194509250565b600080fd5b7f4e487b7100000000000000000000000000000000000000000000000000000000600052604160045260246000fd5b613daf82613a23565b810181811067ffffffffffffffff82111715613dce57613dcd613d77565b5b80604052505050565b6000613de1613953565b9050613ded8282613da6565b919050565b600067ffffffffffffffff821115613e0d57613e0c613d77565b5b613e1682613a23565b9050602081019050919050565b82818337600083830152505050565b6000613e45613e4084613df2565b613dd7565b905082815260208101848484011115613e6157613e60613d72565b5b613e6c848285613e23565b509392505050565b600082601f830112613e8957613e88613c99565b5b8135613e99848260208601613e32565b91505092915050565b60008060408385031215613eb957613eb861395d565b5b6000613ec785828601613988565b925050602083013567ffffffffffffffff811115613ee857613ee7613962565b5b613ef485828601613e74565b9150509250929050565b600060208284031215613f1457613f1361395d565b5b6000613f2284828501613c44565b91505092915050565b600080600060608486031215613f4457613f4361395d565b5b6000613f5286828701613c44565b9350506020613f6386828701613c44565b9250506040613f7486828701613988565b9150509250925092565b600060ff82169050919050565b613f9481613f7e565b82525050565b600060c082019050613faf6000830189613ade565b613fbc6020830188613f8b565b613fc96040830187613ade565b613fd66060830186613a9f565b613fe36080830185613b99565b613ff060a0830184613a9f565b979650505050505050565b600060a0820190506140106000830188613b99565b61401d6020830187613ade565b61402a6040830186613ade565b6140376060830185613ade565b6140446080830184613ade565b9695505050505050565b61405781613b8d565b811461406257600080fd5b50565b6000813590506140748161404e565b92915050565b600080604083850312156140915761409061395d565b5b600061409f85828601613c44565b92505060206140b085828601614065565b9150509250929050565b600067ffffffffffffffff8211156140d5576140d4613d77565b5b6140de82613a23565b9050602081019050919050565b60006140fe6140f9846140ba565b613dd7565b90508281526020810184848401111561411a57614119613d72565b5b614125848285613e23565b509392505050565b600082601f83011261414257614141613c99565b5b81356141528482602086016140eb565b91505092915050565b600080600080608085870312156141755761417461395d565b5b600061418387828801613c44565b945050602061419487828801613c44565b93505060406141a587828801613988565b925050606085013567ffffffffffffffff8111156141c6576141c5613962565b5b6141d28782880161412d565b91505092959194509250565b6000806000606084860312156141f7576141f661395d565b5b600061420586828701613988565b935050602061421686828701613988565b925050604061422786828701613988565b9150509250925092565b600080604083850312156142485761424761395d565b5b600061425685828601613c44565b925050602083013567ffffffffffffffff81111561427757614276613962565b5b61428385828601613e74565b9150509250929050565b600080604083850312156142a4576142a361395d565b5b60006142b285828601613c44565b92505060206142c385828601613c44565b9150509250929050565b7f4e487b7100000000000000000000000000000000000000000000000000000000600052602260045260246000fd5b6000600282049050600182168061431457607f821691505b602082108103614327576143266142cd565b5b50919050565b7f4552433732313a20617070726f76616c20746f2063757272656e74206f776e6560008201527f7200000000000000000000000000000000000000000000000000000000000000602082015250565b60006143896021836139e8565b91506143948261432d565b604082019050919050565b600060208201905081810360008301526143b88161437c565b9050919050565b7f4552433732313a20617070726f76652063616c6c6572206973206e6f7420746f60008201527f6b656e206f776e6572206f7220617070726f76656420666f7220616c6c000000602082015250565b600061441b603d836139e8565b9150614426826143bf565b604082019050919050565b6000602082019050818103600083015261444a8161440e565b9050919050565b7f4e487b7100000000000000000000000000000000000000000000000000000000600052601160045260246000fd5b600061448b82613967565b91507fffffffffffffffffffffffffffffffffffffffffffffffffffffffffffffffff82036144bd576144bc614451565b5b600182019050919050565b60006060820190506144dd6000830186613a9f565b6144ea6020830185613a9f565b6144f76040830184613ade565b949350505050565b60008151905061450e8161404e565b92915050565b60006020828403121561452a5761452961395d565b5b6000614538848285016144ff565b91505092915050565b600061454c82613967565b915061455783613967565b925082820190508082111561456f5761456e614451565b5b92915050565b600061458183856139e8565b935061458e838584613e23565b61459783613a23565b840190509392505050565b60006060820190506145b76000830187613ade565b81810360208301526145ca818587614575565b90506145d96040830184613ade565b95945050505050565b60006040820190506145f76000830185613a9f565b81810360208301526146098184613a34565b90509392505050565b60008151905061462181613971565b92915050565b60006020828403121561463d5761463c61395d565b5b600061464b84828501614612565b91505092915050565b60006040820190506146696000830185613ade565b6146766020830184613ade565b9392505050565b7f436f696e20746f6b656e20736574000000000000000000000000000000000000600082015250565b60006146b3600e836139e8565b91506146be8261467d565b602082019050919050565b600060208201905081810360008301526146e2816146a6565b9050919050565b7f4552433732313a2063616c6c6572206973206e6f7420746f6b656e206f776e6560008201527f72206f7220617070726f76656400000000000000000000000000000000000000602082015250565b6000614745602d836139e8565b9150614750826146e9565b604082019050919050565b6000602082019050818103600083015261477481614738565b9050919050565b7f4552433732313a20696e76616c696420746f6b656e2049440000000000000000600082015250565b60006147b16018836139e8565b91506147bc8261477b565b602082019050919050565b600060208201905081810360008301526147e0816147a4565b9050919050565b7f4552433732313a2061646472657373207a65726f206973206e6f74206120766160008201527f6c6964206f776e65720000000000000000000000000000000000000000000000602082015250565b60006148436029836139e8565b915061484e826147e7565b604082019050919050565b6000602082019050818103600083015261487281614836565b9050919050565b7f5265717565737420696e6578697374616e740000000000000000000000000000600082015250565b60006148af6012836139e8565b91506148ba82614879565b602082019050919050565b600060208201905081810360008301526148de816148a2565b9050919050565b7f4e6f742074686520726571756573746f72000000000000000000000000000000600082015250565b600061491b6011836139e8565b9150614926826148e5565b602082019050919050565b6000602082019050818103600083015261494a8161490e565b9050919050565b7f54696d656f757400000000000000000000000000000000000000000000000000600082015250565b60006149876007836139e8565b915061499282614951565b602082019050919050565b600060208201905081810360008301526149b68161497a565b9050919050565b60006149c882613967565b91506149d383613967565b92508282039050818111156149eb576149ea614451565b5b92915050565b7f526573706f6e64657220696e6163746976650000000000000000000000000000600082015250565b6000614a276012836139e8565b9150614a32826149f1565b602082019050919050565b60006020820190508181036000830152614a5681614a1a565b9050919050565b7f4d617820696e666572656e636573207265616368656400000000000000000000600082015250565b6000614a936016836139e8565b9150614a9e82614a5d565b602082019050919050565b60006020820190508181036000830152614ac281614a86565b9050919050565b7f496e636f727265637420726573706f6e64657200000000000000000000000000600082015250565b6000614aff6013836139e8565b9150614b0a82614ac9565b602082019050919050565b60006020820190508181036000830152614b2e81614af2565b9050919050565b7f496e73756666696369656e74206f666665720000000000000000000000000000600082015250565b6000614b6b6012836139e8565b9150614b7682614b35565b602082019050919050565b60006020820190508181036000830152614b9a81614b5e565b9050919050565b60008190508160005260206000209050919050565b60006020601f8301049050919050565b600082821b905092915050565b600060088302614c037fffffffffffffffffffffffffffffffffffffffffffffffffffffffffffffffff82614bc6565b614c0d8683614bc6565b95508019841693508086168417925050509392505050565b6000819050919050565b6000614c4a614c45614c4084613967565b614c25565b613967565b9050919050565b6000819050919050565b614c6483614c2f565b614c78614c7082614c51565b848454614bd3565b825550505050565b600090565b614c8d614c80565b614c98818484614c5b565b505050565b5b81811015614cbc57614cb1600082614c85565b600181019050614c9e565b5050565b601f821115614d0157614cd281614ba1565b614cdb84614bb6565b81016020851015614cea578190505b614cfe614cf685614bb6565b830182614c9d565b50505b505050565b600082821c905092915050565b6000614d2460001984600802614d06565b1980831691505092915050565b6000614d3d8383614d13565b9150826002028217905092915050565b614d56826139dd565b67ffffffffffffffff811115614d6f57614d6e613d77565b5b614d7982546142fc565b614d84828285614cc0565b600060209050601f831160018114614db75760008415614da5578287015190505b614daf8582614d31565b865550614e17565b601f198416614dc586614ba1565b60005b82811015614ded57848901518255600182019150602085019450602081019050614dc8565b86831015614e0a5784890151614e06601f891682614d13565b8355505b6001600288020188555050505b505050505050565b6000614e2a82613f7e565b915060ff8203614e3d57614e3c614451565b5b600182019050919050565b6000604082019050614e5d6000830185613ade565b8181036020830152614e6f8184613a34565b90509392505050565b7f496e666572656e636520696e6578697374616e74000000000000000000000000600082015250565b6000614eae6014836139e8565b9150614eb982614e78565b602082019050919050565b60006020820190508181036000830152614edd81614ea1565b9050919050565b7f4265747765656e203120616e6420313000000000000000000000000000000000600082015250565b6000614f1a6010836139e8565b9150614f2582614ee4565b602082019050919050565b60006020820190508181036000830152614f4981614f0d565b9050919050565b6000614f5b82613967565b9150614f6683613967565b9250828202614f7481613967565b91508282048414831517614f8b57614f8a614451565b5b5092915050565b7f4e487b7100000000000000000000000000000000000000000000000000000000600052603260045260246000fd5b7f4e487b7100000000000000000000000000000000000000000000000000000000600052601260045260246000fd5b6000614ffb82613967565b915061500683613967565b92508261501657615015614fc1565b5b828204905092915050565b60006040820190506150366000830185613a9f565b6150436020830184613ade565b9392505050565b600060608201905061505f6000830186613ade565b61506c6020830185613ade565b6150796040830184613ade565b949350505050565b7f4e6f646520746f6b656e20736574000000000000000000000000000000000000600082015250565b60006150b7600e836139e8565b91506150c282615081565b602082019050919050565b600060208201905081810360008301526150e6816150aa565b9050919050565b7f4f776e61626c653a206e6577206f776e657220697320746865207a65726f206160008201527f6464726573730000000000000000000000000000000000000000000000000000602082015250565b60006151496026836139e8565b9150615154826150ed565b604082019050919050565b600060208201905081810360008301526151788161513c565b9050919050565b7f4f776e61626c653a2063616c6c6572206973206e6f7420746865206f776e6572600082015250565b60006151b56020836139e8565b91506151c08261517f565b602082019050919050565b600060208201905081810360008301526151e4816151a8565b9050919050565b7f4552433732313a207472616e736665722066726f6d20696e636f72726563742060008201527f6f776e6572000000000000000000000000000000000000000000000000000000602082015250565b60006152476025836139e8565b9150615252826151eb565b604082019050919050565b600060208201905081810360008301526152768161523a565b9050919050565b7f4552433732313a207472616e7366657220746f20746865207a65726f2061646460008201527f7265737300000000000000000000000000000000000000000000000000000000602082015250565b60006152d96024836139e8565b91506152e48261527d565b604082019050919050565b60006020820190508181036000830152615308816152cc565b9050919050565b7f4552433732313a20617070726f766520746f2063616c6c657200000000000000600082015250565b60006153456019836139e8565b91506153508261530f565b602082019050919050565b6000602082019050818103600083015261537481615338565b9050919050565b7f4552433732313a207472616e7366657220746f206e6f6e20455243373231526560008201527f63656976657220696d706c656d656e7465720000000000000000000000000000602082015250565b60006153d76032836139e8565b91506153e28261537b565b604082019050919050565b60006020820190508181036000830152615406816153ca565b9050919050565b600081905092915050565b6000615423826139dd565b61542d818561540d565b935061543d8185602086016139f9565b80840191505092915050565b60006154558285615418565b91506154618284615418565b91508190509392505050565b7f45524337323155524953746f726167653a2055524920736574206f66206e6f6e60008201527f6578697374656e7420746f6b656e000000000000000000000000000000000000602082015250565b60006154c9602e836139e8565b91506154d48261546d565b604082019050919050565b600060208201905081810360008301526154f8816154bc565b9050919050565b600081519050919050565b600082825260208201905092915050565b6000615526826154ff565b615530818561550a565b93506155408185602086016139f9565b61554981613a23565b840191505092915050565b60006080820190506155696000830187613a9f565b6155766020830186613a9f565b6155836040830185613ade565b8181036060830152615595818461551b565b905095945050505050565b6000815190506155af81613b34565b92915050565b6000602082840312156155cb576155ca61395d565b5b60006155d9848285016155a0565b91505092915050565b7f4552433732313a206d696e7420746f20746865207a65726f2061646472657373600082015250565b60006156186020836139e8565b9150615623826155e2565b602082019050919050565b600060208201905081810360008301526156478161560b565b9050919050565b7f4552433732313a20746f6b656e20616c7265616479206d696e74656400000000600082015250565b6000615684601c836139e8565b915061568f8261564e565b602082019050919050565b600060208201905081810360008301526156b381615677565b905091905056fea2646970667358221220b2ba0922ffcec625940be6f11b08a61082fe4a4dad078aa9a80e13f655854ea864736f6c63430008110033",
  "linkReferences": {},
  "deployedLinkReferences": {}
}